S010000066756C6C50524A332E7372656342
S11300000C942A000C9447000C9447000C9447006D
S11300100C9447000C9447000C9447000C94470040
S11300200C9447000C949B000C9447000C944700DC
S11300300C9447000C9447000C9447000C94470020
S11300400C9447000C9447000C94E9000C9447006E
S11300500C94470011241FBECFE5D4E0DEBFCDBF12
S113006010E0A0E6B0E0ECE2F2E002C005900D92F0
S1130070A836B107D9F720E0A8E6B0E001C01D9288
S1130080AE36B207E1F70E9479000C9414010C9487
S11300900000CF93DF93CDB7DEB728970FB6F8945F
S11300A0DEBF0FBECDBFAC0188E0E0E6F0E0DE01CC
S11300B0119601900D928A95E1F755238CF0FE017B
S11300C0319620E030E0919195BB8FE19EE4019759
S11300D0F1F700C000002F5F3F4F421753079CF712
S11300E028960FB6F894DEBF0FBECDBFDF91CF9137
S11300F00895B9988FEF84BB81BBD09A1FBC87E069
S11301008EBD1DBC1CBC83E083BF86E082BF81E042
S113011089BF8BB780628BBF84B7806484BF08B605
S113012000FEFDCF18BE789480916800909169001C
S11301300E944900F9CF1F920F920FB60F9211241B
S11301402F933F936F937F938F939F93AF93BF931B
S113015080916C0090916D00019690936D00809356
S11301606C0086E082BF80916C0090916D00873EA8
S1130170934011F52CB53DB530936B0020936A0084
S1130180A5ECBEE40E940501969587959695879502
S1130190893091052CF4909369008093680006C01F
S11301A088E090E090936900809368001DBC1CBCBB
S11301B010926D0010926C00BF91AF919F918F913E
S11301C07F916F913F912F910F900FBE0F901F90D1
S11301D018951F920F920FB60F9211248F939F932D
S11301E0D89A8FE79EE30197F1F700C00000D898F2
S11301F08FE79EE30197F1F700C000009F918F9174
S11302000F900FBE0F901F901895A29FB001B39F3F
S1130210C001A39F700D811D1124911DB29F700D0B
S10F0220811D1124911D0895F894FFCF56
S10B022C0103070F1F3F7FFFD0
S9030000FC
